:020000040800F2
:10000000A0060020F9440008D9430008DB4300089B
:10001000DD430008DF430008E14300080000000062
:10002000000000000000000000000000E3430008A2
:10003000E543000800000000E7430008E94300082A
:1000400023450008274500082B4500082F450008D8
:1000500033450008374500083B4500083F45000888
:10006000ED430008F34300084345000847450008F6
:100070004B4500084F450008534500085745000808
:10008000F9430008FF4300085B4500085F4500088E
:1000900063450008674500086B4500086F45000888
:1000A00073450008774500087B4500087F45000838
:1000B000834500080000000000000000874500089C
:1000C0008B4500088F4500089345000897450008B8
:1000D0009B4500089F450008A3450008A745000868
:1000E000AB450008AF45000800000000000000001C
:1000F0000000000000000000000000000000000000
:1001000000000000B345000800000000B7450008EB
:100110000000000000000000BB450008BF450008CB
:10012000C3450008C7450008CB450008CF45000877
:10013000D34500080000000000000000000000009F
:10014000D7450008DB450008DF4500080000000037
:10015000E3450008E7450008EB450008EF450008C7
:10016000F3450008F7450008FB45000800000000C3
:10017000FF450008034600080000000000000000E2
:10018000074600080B4600080F4600082DE9F84F07
:1001900074A7A2B0D7E90045CDE900452C9EDFF851
:1001A000307C04918DF843605FF000016FA40D91E5
:1001B00012944FF0FF368246904699460FE0C346B0
:1001C0002C461BF8011B0498D0470028049000F02F
:1001D000B2800D98401C641E0D90F2D1A84498F88E
:1001E0000000252807D100210791089109910A9163
:1001F0000B910C910DE06A463146404600F0D0FF6D
:10020000050001D10D98B5E0D9D50125E6E741F00B
:10021000010118F8010F2028F9D023280CD02B2831
:1002200004D02D2805D0302809D086E041F0020105
:10023000EFE741F00401ECE741F00801E9E741F0A4
:100240001001E6E700200F900AE00F98B84205DAA7
:1002500000EB800302EB4302303A0F9208F10108F1
:1002600098F80020A2F130000A28EED398F8000098
:100270002E2818BF0E9629D118F8010F2A280BD165
:10028000D9F80000C9F8000008F1010850F8042B63
:10029000C9F800000E9219E02D280CBF18F8010BC8
:1002A000002000220E920BE040B90E9ABA4205DA05
:1002B00002EB820403EB4403303B0E9308F1010888
:1002C00098F80030A3F130020A2AEDD3ADF84010BF
:1002D000129898F8001000F06DFF08B118F8010BA3
:1002E0008DF842009DF84200682804BF98F800107D
:1002F000682903D162208DF8420008E06C2804BF11
:1003000098F800006C2804D171218DF8421008F192
:10031000010813A806904A4618F8013B02A9504666
:1003200000F068F838B913AA02A9504600F0CAF9DB
:1003300000287FF554AF30461CE02A2882D1D9F836
:100340000020C9F8002052F8040BC9F8002000284A
:100350000F9003D540420F9041F0040108F10108CD
:1003600084E700000000000000000000686A6C7470
:100370007A4C000023B0BDE8F08F622820D06828B6
:1003800011D06A2803D06C2827D0712825D108689D
:10039000C01D20F007000860D0E900230830086085
:1003A000194610467047002A0A680A60106803D090
:1003B000121D0A6000B217E0121D0A6080B217E039
:1003C000002A0A680A60106803D0121D0A6040B251
:1003D0000AE0121D0A60C0B20AE0002A0A680A6038
:1003E000106803D0121D0A60C1177047121D0A6001
:1003F000002170477CB50D4611461C462E69B4F1AC
:10040000250200F04D811C3A00F08680121F022A5E
:1004100040F282800E3A00F00781521F5AD0093A0A
:100420007AD0921E16D0521E35D0521E022A73D98F
:10043000121F30D0521F00F09A80521E4AD0521E16
:1004400000F0E480D21E00F0FD80921E42D0D21E49
:1004500040D02BE195F83A206C2A09D06869421CFB
:100460006A610A680A6052F8043B0A60335427E163
:100470000A680A6052F8043B0A6000210093019167
:100480004FF0FF322A6329466A4600F096F90028A9
:1004900040F1168101E195F83A000122FFF76DFF66
:1004A000C5E900010023994204DA6869411C6961C9
:1004B0002D210DE0288F810704D56869411C6961F1
:1004C0002B2105E0C00722D56869411C6961202104
:1004D00031541CE095F83A000022FFF74EFFC5E9C1
:1004E000000195F83800010711D5D5E90023002057
:1004F000834208BF82420AD044F02000782806D107
:10050000686930213154401C411C696134542146D2
:1005100068693044E86083E00868C01D20F0070087
:100520000860D0E9002308300860C5E90023D5E958
:100530000001C80F04D06869411C69612D210DE0DC
:10054000288F810704D56869411C69612B2105E06A
:10055000C00704D56869411C69612021315468696C
:100560003044E8602146284600F032FAA8E005F160
:100570003A02507820B14FF0FF340FF6243070E08B
:100580001078622808D0682824D06A2812D06C28F5
:100590002ED071280ED02BE00A680A6052F8040BA6
:1005A0000A6020B94FF0FF340FF60C3059E0E96AC9
:1005B000017085E00A680A6052F8040B0A6020B9ED
:1005C0004FF0FF340FF6F0204BE0EA6AD317C0E992
:1005D000002375E00A680A6052F8040B0A6020B92B
:1005E0004FF0FF340FF6D0203BE0E96A018067E06E
:1005F0000A680A6052F8040B0A6020B94FF0FF3411
:100600000FF6B4202DE0E96A016059E00A680A603B
:1006100052F8040B0A600021C5E90001EE60782160
:10062000284600F029F94BE06C2285F83A200B6847
:100630000B6053F8042B0B6052BB4FF0FF340FF6E6
:10064000AC200EE095F83A206C2AF0D008680860DB
:1006500050F8044B0860EC603CB94FF0FF340FF6E3
:10066000702000F0B3FD201A76BD2E6B002E04D54D
:10067000204600F0CBFD044608E03246002120462B
:1006800000F0E0FD002814BF041B3446AC6117E005
:10069000294600F092F8002812D54FF0FF3076BDC1
:1006A0006869411C69612521315409E06969481C68
:1006B000686125227254210002D0411C69613454C2
:1006C000002076BD2DE9F0410E460546716B70693C
:1006D000B46A091A306A091AB069091A706A091AE3
:1006E000F069091A96F838000C1B410790460DD4A2
:1006F000002C0BDD2746B0682021A8470028B060F9
:1007000057D0F06A401C7F1EF062F4D173694246F4
:100710003146284600F0ACFC00284AD1376A002F49
:100720000ADDB0683021A8470028B06041D0F06AE7
:10073000401C7F1EF062F4D1B369F268314628464E
:1007400000F096FCA8BB776A002F09DDB068302165
:10075000A847B06068B3F06A401C7F1EF062F5D114
:10076000F068B169F36942183146284600F080FC10
:10077000F8B9B76A002F09DDB0683021A847B0602A
:10078000B8B1F06A401C7F1EF062F5D196F83800CF
:1007900041070BD5002C09DDB0682021A847B060C7
:1007A00038B1F06A401C641EF062F5D10020BDE84B
:1007B000F0814FF0FF30BDE8F0812DE9F8470D469C
:1007C000A3B02F6B002F8146904648BF6FF00047C3
:1007D00000F064FD696B40180FF62C118128D1E9F7
:1007E0000023CDE9012328BF4FF0FF303ED2002483
:1007F000002F2FDDD8F8001001AA684600F0D2FCC7
:100800000646002E35D4D8F8000008B9761E30D43C
:10081000B7421FDB6869301881280AD3002068635B
:1008200003AA29464846FFF74DFF040012D40020D2
:10083000686103A8D5F814A032466946504400F018
:1008400033FDB244C5F814A058F8040B002818BFB3
:10085000BF1BCDD12CB903AA29464846FFF732FF6A
:10086000044614B9002068616863204624B0BDE8DE
:10087000F0874FF0FF34F8E72DE9FC4707468A463A
:100880003E69BAF16F0F08BF082405D04AF0200175
:10089000782914BF0A2410243C25D7E90023BAF193
:1008A000640F18BFBAF1690F9046994606D100212E
:1008B0008B4203DAD8F1000869EB49090020814531
:1008C00008BF80451FD1386BE8B9082C4CD197F888
:1008D0003800010748D530203B2586F83B0043E02F
:1008E00000280ED597F8380000F01400102808D121
:1008F0007A6B7869121A386A121A511A0029C8BF1D
:100900003962BDE8F3878DF800A04046494622468B
:10091000E31700F01DFD3032D0B26D1E3A2801956C
:1009200004DB9DF80000A0F151018A187255404681
:1009300049462246E31700F00BFD80468946002019
:10094000814508BF804503D0F86871198842DCD31F
:10095000082C09D197F83800010705D5715D3029B9
:1009600002D06D1E30207055C5F13C01B96170197F
:10097000F860386B8142B3DA411A39624FF6EF7092
:10098000398F01403987BDE8F3872DE9D04306460A
:100990000F4614464FF00008DFF8389412E0E007E5
:1009A00007D542464B463046394600F0E9FD06463B
:1009B0000F464046494642464B4600F0E1FD641072
:1009C00080468946002CEAD130463946BDE8D083BE
:1009D0002DE9F34F054641F020048DB0D5E900899B
:1009E000612C02AE09D0286B002848BF062003D432
:1009F00008BF672C01D101202863D5E900235800E6
:100A00004015401C0ED119030CD00320A8619DF89D
:100A1000380061381A2802D20FF2F46111E00FF2A7
:100A2000F4610EE058004015401C0FD119030DD1A0
:100A30000320A8619DF8380061381A2814D30FF2FA
:100A4000DC61E868032200F02FFCD3E1194621F0B5
:100A50000043B3F5801F10460DD20027BB4208BFEC
:100A6000BA42019703D111E00FF2AC61E9E701AAA4
:100A700000F058FE0AE0DFF8607307EB1352DFF86E
:100A80005C3301921940DFF858331943C5E900017E
:100A9000612C0ED1E86830210170811CE9609DF85D
:100AA000381061290CBF7821582141706869801C79
:100AB0006861D5E900AB2BF0004300202AF000026A
:100AC000834204BF8242002300F05A81612C40F02F
:100AD000A980286B00284CBF2120401C0090404674
:100AE000009F7F1C49460022002300F053FED94698
:100AF00001988DF8082038BF89F00049001F019047
:100B0000002FD0460DF1090040F3498140F2FF71FA
:100B1000DFF8D0B20C910646404649460022002339
:100B200000F050FE80F03A814800400D00F11C02B8
:100B300010D0002A0EDD0C98824205DB09F000403F
:100B400040EA0B01002013E0A448084040EA0251AB
:100B500040460DE029F00043002028F000028342C7
:100B600008BF82420FBF40461C22404600F042FEB2
:100B70008046894600F0DCFEFF1F002F044609DD99
:100B800000F0F4FE02460B464046494600F000FFE6
:100B900080468946F01D072104E004F00F0200F8AA
:100BA000012D2411002C01DD491EF6D5491E5CBF24
:100BB000002200F8012DF9D5ECE00020194602AA28
:100BC0000A4400E05B1E12F80149491E8442F9D034
:100BD0000F2804D10DF10900425C521C4254002937
:100BE00004D50198001D02AE5B1C0190591E12D461
:100BF0009DF838007218147804F130085FFA88F410
:100C0000392CC4BFA0F13A04A044491E02F801895E
:100C1000F1D58DF83800286B002840F1B080591EBE
:100C20002963ACE0404649460022002300F0B2FDB3
:100C3000019938BF89F0004947F2975041436A4A09
:100C400091FBF2F20192D2F1070204DD40464946DF
:100C5000FFF79BFE0AE0524200206449FFF795FE31
:100C600002460B464046494600F004FF8046662C8B
:100C7000286BDFF87CB106BF019F0A3706273F18B3
:100C8000142FC8BF142730208DF8080089460DF1B5
:100C9000090000E03046002F34DD06464046494654
:100CA00001F00CF801460A4606F1080304200A2662
:100CB000B2FBF6F606EB860EA2EB4E02303203F8DC
:100CC000012C0A22B6FBF2F202EB820EA6EB4E06D4
:100CD0003036401E03F8026DE9D1083F002F03F1C2
:100CE0000806D7DD084600F0FDFF02460B464046E9
:100CF000494600F04DFE00225B4600F041FC804674
:100D00008946CBE70DF10901401A0DF1090604E00F
:100D10000199491E401E0191761C31783029F7D087
:100D2000662C02D10199491C03E0652C0CBF0121FE
:100D300000212B6BCB189842B8BF431E002B1ED44A
:100D4000834204DAF05C3528A8BF392000DA30206D
:100D50001946721E02EB010800E05B1E18F80199AB
:100D6000491E8145F9D0392802D1705C401C70546D
:100D7000002904D50198401C16465B1C019001987F
:100D800000B200901BB29DF838103246284600F0A1
:100D900035F82FE0C61D002F3FF7BEAE30460DF1EF
:100DA0000901401A009903468842C8BF0B46002B30
:100DB0000DF109063FF52FAF8342BFF6FEAE0DF1F0
:100DC0000900C05C07287FF7F8AE0F20F6E60000A8
:100DD000CBCCCC0C0000244002FCFFFFFFFF0F80B7
:100DE0000000E03F0000F07FA08601000000F03F1F
:100DF00084D797410FB0BDE8F08F00002DE9F84788
:100E000083B006468A461746984600F0CDF9B8F1F9
:100E1000000F406A356B90F8009002DC4FF001083B
:100E2000BFA7BDF930404AF02000662808BF641C07
:100E300015D0672840F0848014F1040FC0F286803A
:100E4000AC4280F2838096F83800641C010702D41B
:100E5000A845B8BF454620B22D1A48BF00250FFA55
:100E600084FAF068B169BAF1000F25DC4A1C30231E
:100E70004354002D03DC96F83800010703D5F068D1
:100E800000F80290521C15EB0A0FB8BF6C4220B25A
:100E9000441941424445B8BFA046B26171620FFA9D
:100EA00088F5F561F068B3692A463946184400F0C0
:100EB000FBF9641BB462C4E022B29045084417DA1F
:100EC0004246394600F0F0F9B0694044B061AAEBFF
:100ED0000801002D716203DC96F838100A0705D569
:100EE000F16801F80090F069401CF061B562A8E07B
:100EF000394600F0D9F9B069002D5044A8EB040838
:100F000003DC96F838100A0703D5F16801F8009061
:100F1000401CB0610FFA88F08542F068B369B8BF31
:100F2000A8460FFA88F207EB0A01184400F0BCF952
:100F3000B0690FFA88F10844B061681A706280E005
:100F4000BAF1610F14D14FF0700A16E0A84504DA27
:100F500096F838100A0758BF45466D1E48BF002551
:100F6000BAF1670F14BF4FF0450A4FF0650A04E06D
:100F7000BAF1410F08BF4FF0500AB169F368481C3D
:100F8000B061002D17F8012B5A5403DC96F8381085
:100F90000A071BD5F168431CB36101F80090002DCE
:100FA00014DDA8F101080FFA88F08542F068B8BF97
:100FB000A8460FFA88F23946184400F075F9B0696E
:100FC0000FFA88F108446D1AB0617562F068B16972
:100FD0000844002C80F800A003D42B214170811C10
:100FE00003E02D2141706442811C00206A460AE022
:100FF00023460A2493FBF4F404EB8405A3EB450396
:1010000002F8013B401C24B2002CF1DC012806DC74
:101010004AF02002652A04BF302201F8012B48B9AA
:10102000302001F8010B07E0401E1DF8002030328F
:1010300001F8012B0028F7DCF068B2691044091AA6
:10104000F16196F8380000F0140010280DD1716994
:10105000B0694118706A4118F0694118B06A4118C6
:10106000706B8142BCBF411A316204B0BDE8F087A9
:10107000F8B505460E4617461C46002074B117F811
:10108000011BB068A847B06030B1F06A401CF06244
:101090000020641EF3D1F2BD4FF0FF30F2BD00001E
:1010A0007072696E74665F733A20256E206469738E
:1010B000616C6C6F776564007072696E74663A205B
:1010C00062616420256E20617267756D656E7400C3
:1010D0007072696E74665F733A2062616420257372
:1010E00020617267756D656E740000007072696EC4
:1010F00074665F733A2062616420256C73206172AC
:1011000067756D656E74000000000000000000004F
:101110006E616E004E414E00696E6600494E46009B
:101120003000B1F5807F02D34FF0FF30704701707F
:10113000012070470078401E8041C043C00F7047B7
:101140001A48704730B45368D418042B09DA41B1F7
:10115000057804F8015B10F8015B15B15B1C491EB2
:10116000F3E7536030BC704738B514461D4661B193
:10117000FFF7E8FF61686A6B204690476FF0010255
:10118000811A02D0491E03D005E06FF0010032BD84
:101190004FF0FF3032BD0021616032BDDA6B104785
:1011A000024BE1E7014BF9E7014870474800002096
:1011B000100000200278C9B28A421AB11CBF10F890
:1011C000012FF9E718BF00207047000080B500B973
:1011D00006A005490B681BB122220021984701E0B7
:1011E00000F08DFD222002BD9C020020636F6E7313
:1011F000747261696E742068616E646C65723A2005
:10120000626164206D6573736167650000F10103BD
:10121000810704D010F8011B89B18107FAD1026857
:10122000B2F10131914311F0803F04BF50F8042F17
:10123000F6E710F8011B11B110F8011BFBE7C01A0B
:1012400070470000C9B2830706D0521E22D310F89F
:10125000013B9942F7D11FE0083A13D302F104028F
:1012600041EA012141EA014150F8043B121F21BF2C
:101270004B40A3F1013C2CEA030C1CF0803FF3D05F
:10128000C9B2001F083210F8013B521E28BF91EA74
:10129000030FF8D818BF0120401E704780B5FFF734
:1012A0004FFF006C02BD000062B38B0708D0521ED6
:1012B00011F8013B00F8013B00F024808B07F6D1C8
:1012C000830740F0208000BF103A07D330B4B1E864
:1012D0003810103AA0E83810F9D230BC530724BFB8
:1012E000B1E80810A0E8081044BF51F8043B40F8EA
:1012F000043BD20724BF31F8022B20F8022B44BF55
:101300000B7803707047121F17D35B0009D151F897
:10131000043B20F8023B1B0C121F20F8023BF6D2C4
:101320000BE051F8043B00F8013B1B0A20F8023B9C
:101330001B0C121F00F8013BF3D238BF121D521EC6
:1013400024BF11F8013B00F8013BF8D870470000BA
:10135000B3BBD9B1B2F5803F7DD2022A1ED98C46EB
:10136000B1FBF2F102FB11C31B0443EA1043B3FBD0
:10137000F2FC02FB1C3380B240EA0343B3FBF2F001
:1013800002FB103240EA0C4000237047022A05D9C4
:101390008446B0FBF2F002FB10C270474AB105D19F
:1013A00000F0010249085FEA300070470022002384
:1013B000704700F0A7BC0B0002000021002070471E
:1013C000904271EB030CF6D3B3F5803F2FD2F0B50A
:1013D000B3FA83F7B1FA81F4A7F10F0E3D1B534026
:1013E000CEF1200602FA0EF2F3415340B5F10F0799
:1013F00046D80F3C2C444140C4F12006A040F141A6
:101400004140B1FBF3F603FB1611A2FB0645001B9E
:10141000A94102D2761E8018594180EA010221FAC0
:101420000EF362FA0EF200215A403046F0BD30B49D
:10143000B1FBF3FC03FB1C11A2FB0C45001BA941F3
:1014400003D2ACF1010C8018594130BC02460B4666
:10145000604600217047B2F1807F65D3F0B5B2FAE3
:1014600082F7B1FA81F4C7F10F063D1B22FA06F3A9
:1014700007F1110EF24120355A40B5F10F07B8D9E6
:101480004140C4F12006A040F1414140B1FBF3FCD2
:1014900003FB1C11A2FB0C45001BA94103D2BCF1AC
:1014A000010C801859410F2F12D30F3FC90341EA95
:1014B0005041B1FBF3F603FB1611A2FB0645D4EB3A
:1014C000C030A94102D2761E8018594146EACC3C70
:1014D00007B34140C7F12006B840F1414140B1FB9C
:1014E000F3F603FB1611A2FB0645001BA94102D22D
:1014F000761E8018594180EA010221FA0EF3C7F1E5
:10150000200462FA0EF20CFA07F05A402CFA04F1A9
:101510003043F0BD80EA010221FA0EF3002162FAA5
:101520000EF260465A40F0BD8C46B1FBF2F102FB70
:1015300011C31B0243EA1063B3FBF2FC02FB1C3332
:101540001B024CEA002043EA1063B3FBF2FC02FBEF
:101550001C331B024CEA002043EA1063B3FBF2FC8D
:1015600002FB1C331B024CEA002043EA1063B3FB6E
:10157000F2FC02FB1C324CEA002000237047000002
:10158000B0B581EA030C0CF0004C40F2FF7515EA8F
:1015900011541DBF15EA1357AC42AF4239E0E419AC
:1015A00023EA455343F48013C90241F0004141EA64
:1015B000505EC7021100A7FB020200284FF0000096
:1015C000EEFB01204FF00001E3FB072118BF42F0C2
:1015D0000102401800214941E3FB0E01A4F580649B
:1015E0000F0302D252004041494154F101046CDD25
:1015F000470872F1004250F1000051EB0451A1F58F
:1016000080115CBF41EA0C01B0BD4CEA05510020DD
:10161000B0BD05EA1357AC4214BFAF4241E050EAF7
:10162000410E1CBF52EA430E02E061460020B0BDED
:1016300024423C441BD15FEA070EF6D0090302BFE7
:1016400001460020AEF1140EB1FA81F7AEEB0704AB
:1016500001FA07FE0C37C7F1200100FA07F7C8406E
:101660004EEA000E23EA455343F48013A2E733F019
:101670000043B3FA83F704BFB2FA82FE77440B3F0C
:10168000E41BB7F1200E2FBF02FA0EF3BB40C7F1E7
:10169000200E22FA0EFE38BF43EA0E03BA40641C45
:1016A00082E750EA410E14BF52EA430E6FF0000188
:1016B0004FF4001717EB430F8ABF194617EB410F82
:1016C000B5E74CEA05510020B0BDD4F10104B4F1F6
:1016D00020070FDAC4F12007520828BF42F00102A8
:1016E00010FA07F501FA07F7E1BF2A43E040384353
:1016F000E1400FE0352C98DCC7F1200452EA4002AB
:1017000020FA07F218BF42F0010231FA07F0A140B7
:101710000A43002172F1004250F1000051EB0C012C
:10172000B0BD000010B5144600F002F8226010BDF4
:10173000C1F30A5343B14A0012F5001F28D2A3F2A5
:10174000FE32A1EB0251704750EA410C20D001F06B
:10175000004C31EA0C01B1FA81F204BFB0FA80F317
:10176000D2180B3AB2F120032CBF00FA03F19140DA
:1017700041EA0C013EBFC2F1200C20FA0CF31943E0
:101780009040524240F2FD33D21A01EB03517047B0
:10179000002270474FF4001C1CEB410F94BF1CEB60
:1017A000430F09E041EA030C50EA4C0C52EA0C0CDE
:1017B00003D2994208BF9042704714BF8B428242C5
:1017C000704700004FF4001C1CEB410F94BF1CEB52
:1017D000430F09E041EA030C50EA4C0C52EA0C0CAE
:1017E00003D28B4208BF8242704714BF9942904295
:1017F00070470000124254D440F2FF7C1CEA11539F
:101800000FD0634531D09B1863453CBF01EB0251BB
:10181000704701F0004141EA0C510020AFF3008015
:10182000704750EA410320D001F0004C91EA0C01CE
:101830001CD0B1FA81F30B3B9A420DD9D21A9940D0
:1018400051EA0C01C3F1200C20FA0CFC61449840D1
:10185000531C40F2FF7CD7E7914041EA0C01C2F1F2
:10186000200C20FA0CF3194390407047B0FA80F333
:101870001533202BE0D3202AEED3203A203B9A4286
:1018800009D9D21A00FA03F141EA0C010020531CD5
:1018900040F2FF7CB8E700FA02F141EA0C010020B7
:1018A0007047524240F2FF7C1CEA11530DD0634551
:1018B000DBD0B2EB030C3CBFA1EB025170470CF143
:1018C000010221EA035141F4801150EA410CCCD0CD
:1018D00001F0004C352A27DC30B481EA0C01B2F16A
:1018E000200309DAC2F12003044601FA03F5D040CF
:1018F0002843D1409C400CE0C3F12002450020FA6F
:1019000003F418BF44F0010421FA03F091400C43A2
:10191000002174F1004550F1000051EB0C0124420C
:1019200030BC7FF47BAF70476146002076E7000053
:10193000C1F30A5340F2FE329B1A14DDD3F12003A7
:101940004FEAE17208DDC90241EA505141F000401E
:10195000D84080185040704703F2E13010B1D243B4
:1019600082F000407047002070470000C11768B146
:101970004840401AB0FA80F29040D21CC907C2F524
:10198000846241EA025202EBD02140057047000018
:1019900070B44FF0004591EA030F40F1B5816B4000
:1019A000841A71EB030603D2001BB1411219734173
:1019B0004FF4001C1CEB410F34BF7CEB430442E0AE
:1019C0000C0DA4EB1356352E4FDC45EAC323DB0A7E
:1019D00045EAC121C912B6F120050DDD63FA05F60D
:1019E000EB4086EA0305124218BF45F00105C01816
:1019F00051F100010CD213E062FA06F5F2405540B5
:101A0000F3415A40B340F3405A408018594107D33C
:101A100049085FEA30005FEA350528BF45F0010557
:101A200001F58011420875F1004250F1000041EBD0
:101A300004514E0016F5001F70BC38BF70470020DF
:101A4000090D090570471CEB410F10D252EA4306FD
:101A50000BD0BCEB410F05D80C0DAB43661E342EEA
:101A6000B6DD02E0AB438018594170BC704770BCD2
:101A700070470000F0B540F2FF7581EA030C0CF0EE
:101A8000004C15EA11541DBF15EA1357AC42AF4282
:101A9000E5E0BC41C1F31301C3F31303801A99417C
:101AA00043F4801304D2641E400049418018594118
:101AB000C90241EA5051B1FBF3F603FB1611A2FB38
:101AC0000675D7EBC020A94102D2761E8018594175
:101AD000C90241EA5051B1FBF3FE03FB1E11A2FB08
:101AE0000E75D7EBC020A94103D2AEF1010E8018CC
:101AF0005941890241EA9051760546EA8E2EB1FBA2
:101B0000F3F603FB1611A2FB0675D7EB8020A94163
:101B100002D2761E80185941C90241EA50514EEA5C
:101B2000060EB1FBF3F603FB1611A2FB0675D7EB0D
:101B3000C020A94102D2761E80185941C90241EA4B
:101B40005051B1FBF3F703FB1711A2FB0735D3EBA1
:101B5000C020A94167F100070CBF004247F0010710
:101B600066F3D5274FEA1E31B80814F5806412DDFC
:101B7000BD0775F1004250EB0E5051EB045111F5C9
:101B8000801F5CBF41EA0C01F0BD4CF07F6141F069
:101B9000E0410020F0BDBD076D0840EA0E5041F461
:101BA0008011D4F10104B4F120060ADAC4F1200650
:101BB0000200E04001FA06F3E1401843B240154349
:101BC0000EE0342C13DCC6F1200445EA40056D0814
:101BD00020FA06F2154321FA06F0A1400D43002138
:101BE00075F1004250F1000051EB0C01F0BD0020F6
:101BF0005FEA0C01F0BDCFB992185B41B3FA83F7ED
:101C000004BFB2FA82F6BF190B3FB7F120062FBF0F
:101C100002FA06F3BB40C7F1200622FA06F638BFE7
:101C20003343BA401CB1E419641E33E77F4231F0FC
:101C30000041B1FA81F404BFB0FA80F6A4190B3C5C
:101C4000B4F120062FBF00FA06F1A140C4F120062E
:101C500020FA06F638BF3143A0403C1B1AE7AC42DD
:101C60001ABF05EA1357AF4212E050EA41061CBF03
:101C700052EA4306BFE750EA4107304661461CBFBF
:101C800041EA0551F0BD52EA430C08BFC143F0BD23
:101C900000204FF4001616EB410F98BF16EB430FD0
:101CA00008BF16EB410F24BFC14305E016EB430FFD
:101CB0000CBF61464CEA0551F0BD0000400D4918CB
:101CC00040EA81200CD2490DA1F58061491C40F009
:101CD000004005DBD1F11F0154BFC840C017704759
:101CE00000207047014648B1B0FA80F18840C91C15
:101CF000C1F58461090501EBD02140057047012041
:101D000000F0B6B870470000841A71EB030604D2E5
:101D10006E40001BB141121973414FF4001C1CEBC3
:101D2000410F34BF7CEB430682E00C0DA4EB13564D
:101D3000362E7BDC012E45EAC32341DC43EA5253B5
:101D400012BFD20292025B08240545EAC12141EA92
:101D50005051D2EBC020994125D407D1B0FA80F67A
:101D600010FA06F162D00020203608E0B1FA81F6C0
:101D7000B140C6F1200220FA02F21143B0404FEA0E
:101D8000F474B4EB465434F001064FEA74040AD8F4
:101D9000D6F50016760D04F00044F04061FA06F224
:101DA0005040F1404840C00A40EA415021F0004113
:101DB00028BF5FEA500550F1000044EBD12135E027
:101DC000DB0A45EAC121C90AB6F120050EDD42EA67
:101DD0000242120CC5F1200603FA06F6EB4042EA75
:101DE00006056D42984161F100010DE062FA06F5C9
:101DF000F240554063FA06FC82EA0C02F3405A4076
:101E00006D42904161EB030111F4801F05D1641E06
:101E1000620502D06D004041494121F48011430820
:101E200075F1004350F1000041EB045170BC704764
:101E30001CEB410F15D223F0004352EA43060BD0AE
:101E40004FEA4C0CBCEB410F04D80C0D661E342E2F
:101E5000B7DDEBE7801A994150EA410608BF00213F
:101E6000E4E708BF1CEB430F28BF6FF00001DDE77C
:101E700080B5AFF30080024A11001820ABBEFBE72B
:101E8000260002002DE9FC4705001AD0DFF8F476A1
:101E9000DFF80047B86800F00C09F86800F00308A4
:101EA0002878C1065BD5B9F1000F05D0B9F10C0F48
:101EB00008BFB8F1010F2ED13868810703D5A86992
:101EC000002800F05881396808074EBF39686168FA
:101ED0000909286A01F0F001814206D200F017FBDF
:101EE000002808D100F01EFA07E000F01BFA286A6B
:101EF00000F00DFB002840F03E8100F0ABFABA681C
:101F000000F09EFADFF88406006800F05BFB010039
:101F100000F0358104E2A869C0B1396841F00101DF
:101F2000396000F071FB06463868810700F12581B1
:101F300000F06AFB801B0328F6D30320F0E100F0D9
:101F400063FB801B0328C0F05581F6E73868400822
:101F50004000386000F058FB06463968880740F1B9
:101F60000E8100F051FB801B0328F6D3E5E768687B
:101F7000B0F5803F06D0B0F5A02F396807D141F405
:101F800080213960386840F48030386006E021F400
:101F9000803139603A6822F480223A60686860B122
:101FA00000F032FB06463968880300F1FB8000F040
:101FB0002BFB801B6528F6D3BFE700F025FB064608
:101FC0003868810340F1EE8000F01EFB801B65281D
:101FD000F6D3B2E7E86880B1396841F480713960BE
:101FE00000F012FB06463868410500F1328100F02E
:101FF0000BFB801B0328F6D39FE7386820F4807022
:10200000386000F001FB06463968480540F1E4807D
:1020100000F0FAFA801B0328F6D38EE760684008C8
:102020004000606000F0F0FA06466068810740F109
:10203000E58000F0E9FA801B0328F6D37DE7052848
:10204000206806D140F004002060216841F00101C1
:1020500005E0400840002060216821F00401216073
:10206000A86841F2893868B100F0CEFA824621684A
:10207000880700F1FF8000F0C7FAA0EB0A00404596
:10208000F5D35AE700F0C0FA82462068810740F194
:10209000F18000F0B9FAA0EB0A004045F5D34CE717
:1020A00000F0B2FA801B0328C0F0F78045E7A06873
:1020B00040084000A06000F0A7FA0646A06881072B
:1020C00040F1EF8000F0A0FA801B0328F6D334E73C
:1020D00000F09AFA801B0328C0F0F3802DE700F08F
:1020E00093FA801B0328C0F0168126E7396808019F
:1020F00003D4F86880088000F860F968DFF8980475
:102100000140F96000F080FA06463868810140F12C
:10211000068100F079FA801B0328F6D30DE7012829
:1021200029D0F868EA6A00F00301914201BF00F08B
:1021300070012A6B521EB1EB021F1CD16A6B00F4B6
:10214000FE41B1EB022F02BF00F07841AA6BB1EB68
:10215000C26F10D1EA6B520800F4C001521EB1EBFD
:10216000425F08D1296C490800F0C060491EB0EBFD
:10217000416F00F0D4800120D2E000F0D3F828783D
:10218000C1070FD5B9F1080F06D0B9F10C0F08BF80
:10219000B8F1030F7FF4EBAE3868810302D56868AD
:1021A0000028E8D02978880716D5B9F1040F06D0A1
:1021B000B9F10C0F08BFB8F1020F7FF40BAF38680C
:1021C000410502D5E8680028D5D07968286921F052
:1021D000F85141EA00617960297808070ED56869ED
:1021E00000283FF41BAF616841F00101616000F01D
:1021F0000BFA0646606881077FF5A1AE297848078B
:102200003DD5B86D0026C10009D4B86D40F08050AE
:10221000B8650126B86D00F0805000900098DFF896
:102220007C83D8F80010C8051BD4D8F8000040F40F
:102230008070C8F8000000F0E7F98246D8F8001076
:10224000C8050ED400F0E0F9A0EB0A000328F5D38E
:1022500073E67868296920F0F85040EA01607860F8
:10226000BAE7A86801287FF4EAAE206840F00100D0
:102270002060F5E61EB1B86D20F08050B865297871
:1022800088060ED5686A00283FF411AFA16841F0B6
:102290000101A16000F0B8F90646A06881077FF54A
:1022A000FFAEA86AD8B3B9F10C0F3FF438AF0228DB
:1022B000386820F0807038607FF418AF00F0A4F91F
:1022C0000646396888013FF503AFF968DFF8D002A8
:1022D000EA6B0140E86A0143286B401E41EA0011A5
:1022E000686B520841EA0021286C521E400841EAFE
:1022F0004251401E41EA4061A86B41EAC061F96069
:10230000396841F080713960F86840F08070F86099
:1023100000F07AF90646386881017FF5E0AE0020CA
:10232000BDE8F687386840F0080038603968286AE8
:1023300021F0F001014339607868E96920F47F40B9
:1023400040EA0120786070472DE9F8430400884690
:102350006AD0DFF85062306800F00700404502D2D2
:1023600000F064F860D12178DFF81852C8074AD528
:102370006068032802D129688A0107E0022802D197
:1023800029688A0302E018B929688A0703D44BE058
:102390002A68510548D5A968890840EA8100A860E3
:1023A00041F2893900F030F90746A868616800F009
:1023B0000C00B0EB810F26D000F026F9C01B484579
:1023C000F3D303201DE02078410705D5A968E06814
:1023D00021F4E0610143A9602078010706D5A868CF
:1023E000216920F4605040EAC100A86000F032F892
:1023F000AA6800F025F8BDE8F2436448006800F0E0
:10240000E1B8BDE8F2832178880705D5A968A068FE
:1024100021F0F0010143A960306800F00700804519
:10242000D1D200F003F8CED00120EAE73168C90824
:1024300048EAC1013160306800F00700404570474C
:102440005949C2F30312895C4F4A01F01F01C84089
:102450001060704770B54B4A554B9068D6680025A0
:10246000002110F00C0006F00306524C03D00C289B
:1024700012D1012E1AD115682E0704D4444D2E68AE
:10248000C6F3032502E01568C5F303154A4E56F856
:10249000255048B9294624E0042808BF214620D009
:1024A00008281ED119461CE00C281AD1D06800F06B
:1024B0000300022803D0032808BF1D4600E025467C
:1024C000D168D068D268C0F306204543C1F302103A
:1024D000C2F34161401C491CB5FBF0F04900B0FB60
:1024E000F1F1084670BD2848304A00681368334946
:1024F000C3F3022206E024482C4A006813682F49DF
:10250000C3F3C222895C01F01F01C84070477CB54B
:102510002B4E054630680024C10002D500F07AF841
:102520000EE0306840F080503060316801F080513A
:102530000091009800F06EF8316821F08051316010
:10254000B0F5007F04D1802D0CD9A12D09D304E072
:10255000802D88BF032405D801D1022402E0702D0C
:1025600000D101240F480168C90844EAC101016093
:10257000006800F00700A04201D0012076BD0020D5
:1025800076BD0000001002400C0000200400002076
:102590009410024090100240FFFFEEFE00700040D9
:1025A0008C809D010020024020430008081002405A
:1025B00000127A000024F40030430008144500089B
:1025C0005810024070B50E4E0446B0680025A0B108
:1025D0004FF47A71B1FBF0F00A490A68B2FBF0F0EF
:1025E00000F09CF848B9102C07D2002221464FF089
:1025F000FF3000F06BF8746000E00125284670BDE4
:10260000000000200C00002001480068704700BF57
:1026100000000020DFF87000006800F4C060704720
:1026200010B5DFF86410B0F5007F086800F4C060F2
:102630001AD1B0F5007F20D00A68DFF85030DFF8FB
:10264000504022F4C06242F400720A6032201A68DC
:102650004243B2FBF4F0401C4A6953050FD50028F1
:1026600018BF401EF8D10AE0B0F5806F05D00A68A7
:1026700022F4C06242F480620A60002010BD486902
:102680004105FAD5032010BD007000400C00002069
:1026900040420F000901020081B002D42948815450
:1026A00005E0294802F00F02104400F8041C01B0B4
:1026B0007047264A13684FF6FF0100020B4000F4F2
:1026C000E0601843224908431060704738B51F4B3B
:1026D0001C68C4F30223C3F10704052C28BF04249B
:1026E0001D1D072D34BF0023DB1E012505FA04F450
:1026F000641E2140994005FA03F35B1E1A40114302
:10270000BDE83440C6E7010007D4012200F01F01F4
:10271000104B8A40400943F82020704710B5401EF6
:10272000B0F1807F01D3012010BD0B4C60600F2100
:102730004FF0FF30FFF7AEFF0022A26007202060BD
:10274000002010BD00E400E018ED00E00CED00E01A
:102750000000FA0500E100E010E000E038B50400F8
:1027600001D1012032BD04F14005687820B9002173
:102770002970204600F005FB00F041F860682168F0
:1027800020F0706008612068816821F40041816058
:10279000E068A168012820680CBF41F4004141F4C1
:1027A00004418160E168022903D122684FF400608E
:1027B00050602068416841F0007141F4004141607F
:1027C0002068C16821F40041C16060692169226804
:1027D0000143A06941EA0021D160206AE169014317
:1027E000206801602068016841F00101016000205B
:1027F00068602020687000202063A87032BD24200B
:1028000068702068016849084900016070472DE937
:10281000FC4700F0C7F83ED1217801293BD00120C8
:102820002070FFF7F1FE00F0B4F800283AD1DDF88F
:102830002880212000F0BFF8DFF8E001B1F5807FAB
:1028400028BF358506D2728D328500F09DF803E0F1
:102850003585002000F093F8494600F0DCF800F0E0
:1028600088F81BD000F09DF900281BD100F0B3F8C8
:10287000F5D089B20029F2D10097434600F017F84D
:1028800080B900F0A4F8E3D2728D32850020DCE735
:1028900000F012F800E00220BDE8F68700F0A8F989
:1028A0000028F5D00120F7E7CDF800903B46002244
:1028B0008021304600F054B930682021C161DFF832
:1028C000600131684A6802404A6020206070002040
:1028D000A070207070472DE9FC4700F063F83FD1ED
:1028E000217801293CD001202070FFF78DFE00F0F7
:1028F00050F800283BD1DDF82880222000F05BF85A
:10290000DFF82001B1F5807F28BF358506D2728DB2
:10291000328500F039F803E03585002000F02FF80B
:10292000494600F078F800F024F81CD000F07CF95B
:1029300000281CD100F05FF80028F4D089B20029EB
:10294000F1D100974346FFF7B2FF80B900F03FF89E
:10295000E2D2728D32850020DBE7FFF7ADFF00E0A9
:102960000220BDE8F68700F043F90028F5D00120E9
:10297000F7E7708D00283A46414630467047009090
:102980004FF08073FF22704700904FF00073D2B277
:10299000704707460097192301224FF40041304643
:1029A00000F0DEB8064606F140048946607820282B
:1029B00015469A46704760701020A0700020606035
:1029C0007562A6F82AA07063FF25718D7047708D1F
:1029D000B0F5807F7047706A326801789162706AE2
:1029E000411C7162708D411E7185308D411E318593
:1029F000708D002870473068416A706A0170706A93
:102A0000411C7162308D411E3185708D421E728570
:102A1000708D70474146304600F076B90020008046
:102A200000E800FE002400802DE9FC470546002058
:102A3000019005F140067078202842D12C68A069E9
:102A400004043ED43478012C3BD001203070C1F313
:102A500009012420707041F42058002041F00071D9
:102A60001C469246706041F40059E86829680128C4
:102A70000CBF484640464860FFF7C6FD0746296838
:102A8000886989694009090900F0010001F0010124
:102A9000084319D114F1010FF1D0FFF7B5FDC01BA8
:102AA000844235D3002CEAD132E000F03AF830B954
:102AB00029682020C86170700020307002E0012079
:102AC00000E00220BDE8F687286881690097C80603
:102AD0002346EAD500F025F80028F0D100F02BF8C5
:102AE00020202A68D061019850450BD1286800F059
:102AF0001DF80097234600F014F80028DFD129685C
:102B00002020C8610198401C019001985045ACD329
:102B1000202070700021706840F0200070603170DB
:102B2000CDE700222021284600F01AB8416841F480
:102B300080414160704729681020C86170470000DB
:102B400081B0006881698A0744BF0022826281697E
:102B5000CA0703D4816941F00101816101B0704766
:102B60002DE9F041069F05460E4690461C46286812
:102B700081693140B1420CBF0120002040450DD198
:102B800014F1010FF3D0FFF73FFDC01B844201D3C6
:102B9000002CECD100F020F8012000E00020BDE87E
:102BA000F08170B505460C4616462868816988078D
:102BB00010D400F035F858B914F1010FF5D0FFF733
:102BC00023FD801B844201D3002CEED100F004F8D9
:102BD000012070BD002070BD05F140002022416839
:102BE00041F0200141604270002181700170704706
:102BF00070B505460C4616462868816988060DD4CE
:102C000000F00EF840B9FFF7FFFC801B844201D3AF
:102C1000002CF1D1FFF7E0FF012070BD002070BD56
:102C200032462146284636E070B505460C46164623
:102C30002868816948072CD4FFF7F2FF38BB296860
:102C40008869820610D4FFF7DFFC801B844201D321
:102C5000002CEDD105F140002022416841F0200117
:102C600041604270002111E08869420701D5288D3A
:102C700078B92022CA6100F042F84A6005F14000AC
:102C800000214160202141700021817001700120EC
:102C900070BD002070BD70B505460C46286881697E
:102CA000C806164618D5286881698A0616D414F114
:102CB000010FF8D0FFF7A8FC801B844201D3002C41
:102CC000F1D105F14000416841F02001416020222E
:102CD000FFF789FF012070BD002070BD1021C16188
:102CE00020202968C8612846FFF72AFF00F007F86E
:102CF00005F140004A60416841F00401E6E72968B7
:102D00000A484A680240704770B50068049C4568EC
:102D1000074E46EA5456B543C1F30901294341EA37
:102D2000024119432143416070BD000000E800FEEC
:102D3000FF63FF0310B5444C444820604448606082
:102D40000020A0600120E060002020616061A0619F
:102D5000E06120622046FFF701FD08B100F001F9B3
:102D60000021204600F008F908B100F0FAF800212F
:102D7000204600F019F918B1BDE8104000F0F1B894
:102D800010BD70B586B0044601A8142100F038F9D2
:102D900021682E4A914254D12E4D2F4E286840F082
:102DA000020028601222296801F002010091C0216E
:102DB00000980191012003900321042004910590C3
:102DC000029201A9254800F01FF9E86840F40010BC
:102DD000E860E868224D00F40010009005F114014D
:102DE00000983160032070600020B060F0608020A7
:102DF000306100207061B0612020F06100203062FD
:102E0000304600F0F9F908B100F0ABF80320E663B2
:102E1000F064B46210203065B564002070658020D5
:102E2000B0650020F06530667066B06606F1480057
:102E300000F0E2F908B100F094F806F14800A06350
:102E4000346706B070BD0000380200200054004016
:102E5000912970004C100240D80000200004004866
:102E60006C00024018B585B000F096FA00F03AF810
:102E700000F0A2FA00F046FBFFF75CFF00F062FBF7
:102E800001218DF804108DF8081000208DF8020043
:102E90008DF801008DF806000E218DF805008DF8E3
:102EA00007008DF80310684600F09CFB002000F03E
:102EB000E9FC012103A800F07FFC03A88388428875
:102EC000BDF80C1027A0064C00F056FD4FF4005141
:102ED000204600F070F94FF47A7000F061FDF5E7DC
:102EE0000008004800B5ADB005A8442100F088F8FE
:102EF0006846142100F084F816A85C2100F080F8E0
:102F000001210B911020059060210D9100200C9063
:102F100001211091119102200F9028211291072078
:102F2000139002211491159105A8FEF7ABFF0F2015
:102F3000009003210020019102900390049004214D
:102F40006846FFF701FA4220169000211F91229156
:102F500016A800F039FD4FF40070FFF761FB2DB0AB
:102F600000BD7047583D256420593D2564205A3DD9
:102F700025640D0A0000000030B500F140025378CE
:102F8000202B0FD11478012C0CD000F02DF81D68E7
:102F900025F480551D6003681C682143196000F00A
:102FA00019F830BD022030BD10B500F14002537851
:102FB000202B0DD11478012C0AD000F015F81C68D4
:102FC00024F4706444EA01241C6000F003F810BD8E
:102FD000022010BD0068016841F00101016020205D
:102FE0005070002010707047012313702423537019
:102FF00003681C68640864001C6003687047000074
:10300000002200F0A1BE00002DE9F84F4FF0000EA5
:10301000714A724BDFF8C8814FF00F0982460F46A4
:1030200033E0704DAA4514BF072504258D40254384
:1030300043F82C50C143146801EA040C7C68E50392
:1030400048BF40EA0C0CC2F800C0546801EA040C06
:103050007C68A50348BF40EA0C0CC2F804C0946821
:1030600001EA040C7C68E50248BF40EA0C0CC2F897
:1030700008C0D46801EA040C79688C0248BF40EAB1
:103080000C0CC2F80CC00EF1010E396831FA0EF0CA
:1030900000F08880012000FA0EFC1CEA0100F2D04A
:1030A0007C68022C18BF122C4FEA8E0110D14FEA17
:1030B000DE040AEB840401F01C05266A09FA05FB0C
:1030C00026EA0B06D7F810B00BFA05F53543256252
:1030D0004FEA4E040325DAF8006097F804B0A540E3
:1030E000ED430BF0030B2E400BFA04FB4BEA0606F4
:1030F000CAF800607E68012E18BF022E03D0112E80
:1031000018BF122E17D1DAF80860D7F80CB02E408D
:103110000BFA04FB4BEA0606CAF80860DAF804600A
:1031200026EA0C0C7E68C6F3001606FA0EF646EA8E
:103130000C06CAF80460DAF80C603540BE6806FA7E
:1031400004F42C43CAF80C407C68E4009BD5D8F802
:10315000004044F00104C8F800404FEA9E0CD8F843
:10316000005005F00105009501F00C01009C53F89A
:103170002C5009FA01F425EA0404BAF1904F08BF73
:1031800000250ED0184DAA4508BF012509D0174DBE
:10319000AA4508BF022504D0154DAA457FF441AFCA
:1031A000032543E7BDE8F18F81B0002A14BF816198
:1031B000816201B0704781B042690A4214BF8162E6
:1031C000816101B070470B4A136803421CBF106055
:1031D00000F04CB9704700000004014008000140B5
:1031E0006010024000100048000400480008004839
:1031F000000C00481404014070B508B9012070BDEE
:1032000004682C492C4B8C4200F1240205D22B4936
:1032100000F049F81562D36105E0294900F043F850
:1032200028491562D16102215170256881686FF3C8
:103230000E150D43C1680D4301690D4341690D43EE
:1032400081690D43C1690D43016A0D4325608168A1
:10325000B1F5804F20D0D4690F219C4209D11A4B7F
:103260001C6892F8205005F01C05A94024EA0101D1
:1032700008E0164B1D6892F8204004F01C04A140A1
:1032800025EA01011960196892F82040406804F0AD
:103290001C04A0400143196000209061012050707F
:1032A0000020107070BD0D191426B5FBF6F5AD00A9
:1032B000704700000804024000000240F8FFFDBF14
:1032C000F8FBFDBF00040240A8000240A804024031
:1032D000F8B500F124010423CA691468026815686E
:1032E00091F8206006F01C0603FA06F73C4210D065
:1032F0006F070ED51468A50603D4156825F00405DC
:10330000156000F03AF8C968002935D0BDE8F440EE
:103310000847022303FA06F73C4213D0AF0711D542
:103320001468A50605D4156825F00A051560012264
:103330004A7000F022F800220A708968E1B1BDE805
:10334000F4400847082303FA06F6344214D02B074A
:1033500012D5136823F00E031360012200F015F854
:103360009A40626001228A614A7000220A700969EB
:1033700011B1BDE8F4400847F1BD91F82020CC69B7
:1033800002F01C0293406360704791F82030CC69D2
:1033900003F01C0370470000032010B5FFF789F904
:1033A0000020FFF70FF90024002814BF012400F0CB
:1033B000E5FC204610BD000010B586B001A8142120
:1033C000FFF71EFE3F48046844F0040404600168EF
:1033D0003D4C01F0040100910099016841F0800129
:1033E0000160026802F0800200920099016841F0D9
:1033F00001010160026802F00102009201220099BD
:10340000016841F0020101604FF40051006800F0D2
:103410000200009000982046FFF7C6FE4FF40050CF
:1034200001900121002002910390049001A92046FF
:10343000FFF7EAFD0C20019001202449029103903E
:1034400001A92348FFF7E0FD002200210820FFF733
:103450003DF90820FFF757F9002200210920FFF766
:1034600035F90920FFF74FF906B010BD10B5014638
:103470000429184C144812D14FF40051FFF79BFE59
:10348000002000F0FFF9032221462D2000F05EF914
:1034900094F8001010A0BDE8104000F06DBA0829A3
:1034A0000FD14FF40051FFF786FE0121201D00F0DF
:1034B00083F92389E288A1880DA0BDE8104000F0BF
:1034C0005BBA10BD4C1002400008004800002110FB
:1034D00000040048900200204144584C20504F57AF
:1034E00045525F43544C3D30782558200D0A00006A
:1034F000583D256420593D2564205A3D25640D0A18
:103500000000000080B50E48016841F00101016033
:103510000022006800F001000090002100981020B7
:10352000FFF7D4F81020FFF7EEF800220021112059
:10353000FFF7CCF8BDE802401120FFF7E4B800BF68
:103540004810024080B52448244901604FF4E1311D
:10355000416000218160C16001610C214161002155
:103560008161C1610162416200F020FC18B1BDE8D7
:103570000140FFF7F6BC01BD10B586B0044601A8B6
:103580001421FFF73DFD2168144A914221D11448CE
:10359000C16841F40031C1600222C16801F4003108
:1035A00000910099016841F0010101600C2100685F
:1035B00000F0010000900098019100200390032189
:1035C000072004910590029201A94FF09040FFF767
:1035D0001BFD06B010BD0000680100200044004043
:1035E0004C1002401CB50446052302223A21A04893
:1035F000FFF71AFA20B100BFB3A000F0BDF911E047
:10360000B8A000F0B9F9052000F0CAF900208DF843
:10361000010001220DF1010100F098F89DF8011060
:10362000E52901D0012016BDB4A000F0A5F90021C4
:103630002C2000F071F8A078E178012808BF103143
:10364000C9B22C2000F068F80021312000F064F8A5
:10365000617820786279490141EA8011A07941EAD4
:103660008001207941EAC2014118C9B2312000F03D
:1036700053F860797F4978B92279032A14D8DFE8B2
:1036800002F00B0205089FED750A07E09FED740A32
:1036900004E09FED740A01E09FED730A81ED020AD8
:1036A00081ED010A81ED000A00208DF80000012261
:1036B00069462D2000F04AF8E079012806D19DF8EE
:1036C000001041F010018DF8001005E09DF8000099
:1036D00000F0EF008DF80000207A012806D19DF857
:1036E000001041F020018DF8001005E09DF8000069
:1036F00000F0DF008DF800009DF8001084A000F0BD
:103700003BF99DF800102D2000F006F886A000F08F
:1037100033F9002016BD00003EB504460D46214693
:103720004029A8BF3F2404F07F04224682A000F075
:1037300023F90A2000908DF804408DF805500223EB
:1037400001AA3A214A48FFF762F837BD71B50C4625
:10375000014681B040291546A4BF3F208DF80400E2
:103760009DF80400424E022DACBF40F0400000F036
:10377000BF008DF804009DF8040040F080008DF833
:103780000400024674A000F0F7F84FF47A7100913B
:10379000012301AA3A213046FFF739F80028F4D175
:1037A0004FF47A7000902B4622463A213046FFF7BC
:1037B00092F80028F4D173BDFEB50D460021CDE985
:1037C00000110446062269463220FFF7BFFF9DF82C
:1037D00004009DF805109DF802309DF803609DF8E7
:1037E0000120012D0BD19DF8005005EB0222228013
:1037F00000EB012003EB06226280A080F7BD5DBBD9
:103800009DF800701B4D95ED001A07EB022200F0A9
:1038100033F89FED160A60EE810A60EE800A03EB32
:103820000622C4ED000A00F027F895ED011A60EEBB
:10383000810A60EE800A00EB0120C4ED010A00B2AB
:1038400000EE900AF8EEE00A95ED021A60EE810AA9
:1038500020EE800A84ED020AF7BD00000402013C5C
:103860002108823C0821043D8180803BCDCC1C4155
:10387000380200208402002012B200EE902AF8EEF6
:10388000E00A70471CB500F015F814B1012C09D0FE
:1038900013BD9DF8001001F0FB0141F008018DF807
:1038A000001006E09DF8000000F0F7008DF8000021
:1038B000014604E00446012269462D2046E72D20FA
:1038C000FFF72AFF13BD00004144584C20497344C0
:1038D00065766963655265616479204552524F523D
:1038E0000D0A00004144584C2049734465766963D1
:1038F000655265616479204F4B0D0A004144584C74
:103900002044455649443D30782558200D0A000092
:103910004144584C20504F5745525F43544C3D3022
:10392000782558200D0A00004144584C20696E69E2
:10393000744F6B200D0A00007772697465526567D9
:103940006973746572204F6C643D2564204E657701
:103950003D2564200D0A0000726561645265676947
:1039600073746572204F6C643D2564204E65773D0D
:103970002564200D0A0000000EB4C0B5024603A85D
:1039800000210190009101AB0121044878440C30E2
:10399000FCF7FCFB06BC5DF810FB00BF390B000018
:1039A00038B50446FEF730FE14F1010F054602D08B
:1039B000044988680419FEF727FE401BA042FAD389
:1039C00031BD00BF000000202DE9FC470546002462
:1039D0002868DFF858630105A1461BD5686C58B10B
:1039E000B0F5000F03D0B0F5400F09D010E03268F9
:1039F00042F48032326004E0002100F010F9044605
:103A00003CB9F16F686C21F440010143F16701E0BA
:103A10000124A146286881032BD5F06CC1004FF02A
:103A200000080AD4F06C40F08050F0644FF00108B8
:103A3000F06C00F0805000900098DFF8F472396864
:103A400041F480713960FEF7DFFD82463868C105B8
:103A500000F1BB80FEF7D8FDA0EB0A000328F5D3E8
:103A60000324A146B8F1000F03D0F06C20F0805081
:103A7000F0642978C80705D5F16F286A890840EAFB
:103A80008101F1672878810705D5F16F686A21F017
:103A90000C010143F1672878410705D5F16FA86A49
:103AA00021F030010143F1672878810605D5F16FD7
:103AB000E86A21F440610143F1672868810505D572
:103AC000F16FE86B21F440210143F167286841055B
:103AD00005D5F16F286C21F440110143F167287876
:103AE000410605D5F16F286B21F440510143F16780
:103AF0002878010605D5F16F686B21F44041014338
:103B0000F1672868C10505D5F16FA86B21F4403134
:103B10000143F167286801031ED5F16FA86C21F0FD
:103B200040610143F167A86CB0F1006F0CD13068BF
:103B300040F4801030600FE0FEF766FD001B50453A
:103B400062D34FF003098DE7B0F1806F04D100F02C
:103B500065F8010018BF81462868410316D5F16F4A
:103B6000E86C21F040610143F167E86CB0F1006F4F
:103B700004D1306840F48010306007E0B0F1806F0D
:103B800004D100F04BF8010018BF814628684104B9
:103B90000FD5F16F286D21F040510143F167286D79
:103BA000B0F1805F05D1022100F039F8010018BFA3
:103BB00081462868010405D5F16F686D21F08041C8
:103BC0000143F1674846BDE8F687002C7FF449AF12
:103BD000DFF86071386810F440701CBFA96D88422E
:103BE0000BD03868396841F48031396020F4407076
:103BF0003A6822F480323A603860C00707D5FEF791
:103C000003FD044641F2893A3868810794D5396842
:103C1000A86D21F440710143396023E70121281D7B
:103C2000FFE72DE9F0410746434E38680C46F1683E
:103C3000002511F0030F0DD0F16801F0030181425E
:103C400037D1B0B3F0687968C0F30210401C8842E5
:103C500013D02EE0012804D02BD3032823D01ED369
:103C600027E031688A0724D5F1687A6821F073016A
:103C70000843521E40EA0210F060306820F0806075
:103C80003060FEF7C1FC8046316808013AD5FEF786
:103C9000BBFCA0EB08000328F6D3032542E0316803
:103CA0004A05E1D405E032689103DDD431684A0366
:103CB000DAD4012536E0012C326909D11F480240CF
:103CC0003869400842EA0121401E41EA405108E0BB
:103CD0001B4802407869400842EA0121401E41EA3F
:103CE00040613161306840F080603060FEF78CFCEC
:103CF00004463168080111D4FEF786FC001B032836
:103D0000F7D3CAE7B968002CD5D132690D48024013
:103D1000F86842EA012141EAC061E2E73169B86925
:103D2000014331612846BDE8F08100000C100240DB
:103D3000007000409010024000100240FF809FFF82
:103D4000FF80FFF9FF80FF0700B500BF1300964614
:103D50009446103928BFA0E80C50FAD85FEA417C9D
:103D600028BF0CC048BF40F8042BC90728BF20F863
:103D7000022B48BF00F8012B00BD00000A4881B0AB
:103D8000816841F001018160816801F001010091C9
:103D90000099016841F080510160006800F0805096
:103DA0000090009801B070475810024038B50400E8
:103DB00009D004F17005686808B900F01EF800F039
:103DC00021F8012801D1012032BD606A08B100F05C
:103DD0002AF800F00AF821F02A01FFE7816000F0DC
:103DE0001BF8BDE8324000F014BA2068416821F4A5
:103DF0009041416020688168704700212970204609
:103E0000FFF7BABB242068602068016849084900B0
:103E10000160204600F064B82068016841F00101AB
:103E2000016020467047204600F090B92DE9FC471C
:103E3000054605F1700488466068202817469946B3
:103E400043D1B8F1000F14BF002F01203ED02078DD
:103E500001283AD00121217005F150060021E160CE
:103E600021206060FEF7D0FB378077808246A9680A
:103E7000B1F5805F04BF286900281ABF40460027BB
:103E8000474680460DE02868B8F1000F12BF18F8C9
:103E9000011B37F8021BC1F3080101857088411E20
:103EA000718053467088CDF80090002810D0002211
:103EB0008021284600F0DAF90028E4D0032005E04C
:103EC000202060600020207000E00220BDE8F6871E
:103ED00000224021284600F0C9F90028F0D0EDE783
:103EE0002DE9FC4104468C4821688C4F0A68024049
:103EF000A06802432069024360690243E06902430B
:103F00000A6000264A68E06822F4405202434A6090
:103F10000025A369824A91421CBF206A0343886836
:103F200020F4306003438B60B9427E487E4B21D140
:103F30001B6803F00303032B29D8DFE803F00263B7
:103F400050650127E169B1F5004F4FF6F07840F078
:103F5000B38067B1012F00F08980022F00F08980C3
:103F6000042F00F08B80082F00F0918097E0FEF77F
:103F7000BAFA85E06D4FB94223D11B6813F00C03E8
:103F80003ED0042B3ED0082B29D00C2B3CD0102740
:103F90009142D7D1390006D0022F09D0042F35D055
:103FA000082F36D0B0E0FEF79EFA002800F0AD8072
:103FB000626802EB4201884202D3110381422BD294
:103FC000A2E05B4FB9420CD11B6813F0300317D04D
:103FD000102B17D0202B02D0302B15D0D7E702277B
:103FE000D6E79142D3D11F6817F4406708D0B7F5E0
:103FF000806F07D0B7F5006FF1D0B7F5406FECE7F1
:104000000027C5E70427C3E70827C1E7FEF722FA20
:10401000CBE74FF40040CBE737B1022F0AD0042F93
:104020000ED0082F16D01BE0FEF75DFA00F088F8DE
:1040300079410AE000213F4E16EB5200494104E06D
:10404000FEF708FA00F07CF869410023FDF780F9DB
:10405000064606E0500800F50000B0FBF2F600E06E
:104060000125A6F540713448814249E0FEF743FA44
:1040700006E06068314901EB50010CE0FEF7EAF917
:1040800061684A0802EB4002B2FBF1F605E06068A5
:10409000410801F58031B1FBF0F6B6B200E0012530
:1040A000A6F1100040452FD208EA0601C6F34200EF
:1040B00001432068C16028E047B1012F09D0022FD9
:1040C0000CD0042F08D0082F0ED015E0FEF70BFA05
:1040D00004E0FEF710FA01E0FEF7BCF9616800EBBE
:1040E0005100B0FBF1F605E06068410801F50041C0
:1040F000B1FBF0F6B6B200E00125A6F11000404594
:1041000002D22068C66000E00125002121666166B8
:104110002846BDE8F6810000F369FFEF0038014052
:10412000008000400024F400881002400044004059
:1041300000480040000024F400FD0F000048E801A2
:104140006268010E560816EB0020704790F82410A4
:10415000CA0706D502685368816A23F400330B430B
:10416000536090F824108A0706D502685368C16A24
:1041700023F480330B43536090F824104A0706D58C
:1041800002685368016B23F480230B43536090F85B
:1041900024100A0706D502685368416B23F40043D4
:1041A0000B43536090F82410CA0606D50268936842
:1041B000816B23F480530B43936090F824108A069C
:1041C00006D502689368C16B23F400530B439360D8
:1041D00090F824104A0610D502685368016C23F445
:1041E00080130B435360016CB1F5801F05D15368F8
:1041F000416C23F4C0030B43536090F824100A066B
:1042000006D501684A68806C22F4002202434A60A5
:104210007047F8B5044604F170050020E8606FF0BF
:104220007E47FEF7F1F90646206801680A0708D5BF
:104230000097334600224FF40011204600F016F894
:1042400060B9206801684A070AD500973346002202
:104250004FF48001204600F009F808B10320F2BDB8
:1042600020206860A86000202870F2BD2DE9F04190
:10427000069C05460E4690461F462868C169314097
:10428000B1420CBF01200020404519D114F1010FAB
:10429000F3D0FEF7B9F9C01B844201D3002CECD156
:1042A0002868016821F4D071016000F00CF805F174
:1042B000700020214160816000210170032000E036
:1042C0000020BDE8F08128688168490849008160C4
:1042D000704700000E48016841F47001016000223F
:1042E0000C49086840F0010008608A600A480A68C2
:1042F00002400A604FF48050C8600022086820F431
:10430000802008608A614FF00060044908607047AF
:1043100088ED00E000100240FFFFF6EA08ED00E043
:104320000000000000000000010203040607080965
:10433000A0860100400D0300801A060000350C0025
:1043400040420F0080841E0000093D0000127A00E8
:104350000024F40000366E010048E801006CDC0225
:1043600019E050F8042BD30744BFA9F101039A18B0
:10437000091F0023042942F8043BF9D25FEA817C3B
:10438000134604D54FF0000CA2F800C09B1CC907CF
:1043900044BF0021197050F8041B0029E1D1704777
:1043A00030B5016884684218416802EB5103C907BF
:1043B0000BD54C4409E012F9011B12F8015B0029EE
:1043C00004F8015B05D5491CF9D19A42F3D10C30B0
:1043D00030BD491EF1D5F8E77047FEE7FEE7FEE77E
:1043E000FEE770477047704700F010B80420FEF7F2
:1043F000EABE0820FEF7E7BE0248FEF769BF0248A2
:10440000FEF766BF20010020D800002002490A689C
:10441000886882180A6070470000002010B50749BC
:1044200079441831064C7C44163404E00A68081DAF
:10443000114488470146A142F8D110BD2C0000006C
:10444000480000004EF68851CEF20001086840F4A2
:1044500070000860BFF34F8FBFF36F8F4FF0007095
:10446000E1EE100A70470000F9FEFFFFC8010000EE
:10447000D80000200000000029FFFFFF9601000087
:10448000080100000000002000F00DF8002801D015
:10449000FFF7C4FFAFF300800020AFF30080FEF70A
:1044A000E1FC00F002F80120704700F001B80000C4
:1044B00007463846FDF7DCFCFBE7000001B54FF688
:1044C000FF73012269460248FFF7B0FC009802BD65
:1044D0006801002038B504460D46284600F006F86D
:1044E000A84218BF0024204632BD00000149FFF752
:1044F000E5BF00BF90000020014880470148004709
:10450000D542000809450008AFF30080FFF79AFF85
:10451000FFF7BAFF000000000102030400002E00B4
:104520004300FFF7FEBFFFF7FEBFFFF7FEBFFFF739
:10453000FEBFFFF7FEBFFFF7FEBFFFF7FEBFFFF7AF
:10454000FEBFFFF7FEBFFFF7FEBFFFF7FEBFFFF79F
:10455000FEBFFFF7FEBFFFF7FEBFFFF7FEBFFFF78F
:10456000FEBFFFF7FEBFFFF7FEBFFFF7FEBFFFF77F
:10457000FEBFFFF7FEBFFFF7FEBFFFF7FEBFFFF76F
:10458000FEBFFFF7FEBFFFF7FEBFFFF7FEBFFFF75F
:10459000FEBFFFF7FEBFFFF7FEBFFFF7FEBFFFF74F
:1045A000FEBFFFF7FEBFFFF7FEBFFFF7FEBFFFF73F
:1045B000FEBFFFF7FEBFFFF7FEBFFFF7FEBFFFF72F
:1045C000FEBFFFF7FEBFFFF7FEBFFFF7FEBFFFF71F
:1045D000FEBFFFF7FEBFFFF7FEBFFFF7FEBFFFF70F
:1045E000FEBFFFF7FEBFFFF7FEBFFFF7FEBFFFF7FF
:1045F000FEBFFFF7FEBFFFF7FEBFFFF7FEBFFFF7EF
:10460000FEBFFFF7FEBFFFF7FEBFFFF7FEBFFFF7DE
:10461000FEBFFC000010FD000001FC001E093D0073
:104620001C4500081C4500081C4500081C450008E6
:104630001C4500081C4500081C450008F8FF0B1E1F
:104640004500081C4500081C450008FAFF0600004C
:104650002045000801FD000310000020D8000335AC
:10466000110008FC00042311000801F900130204E2
:104670000101E801002038020020E8010020E801E3
:104680000020FC0003E8010020FC0007D40000200B
:06469000C0000020E00064
:0400000508004509A1
:00000001FF
